:020000040800F2
:10000000FCFF002005180000B9160000B91600001A
:10001000B9160000B9160000B9160000B9160000A4
:10002000B9160000B9160000B9160000B916000094
:10003000B9160000B9160000B9160000B916000084
:10004000B9160000B9160000B9160000B916000074
:10005000B9160000B9160000B9160000B916000064
:10006000B9160000B9160000B9160000B916000054
:10007000B9160000B9160000B9160000B916000044
:10008000B9160000B9160000B9160000B916000034
:10009000B9160000B9160000B9160000B916000024
:1000A000B9160000B9160000B9160000B916000014
:1000B000B9160000B9160000B9160000B916000004
:1000C000B9160000B9160000B9160000B9160000F4
:1000D000B9160000B9160000B9160000B9160000E4
:1000E000B9160000B9160000B9160000B9160000D4
:1000F000B9160000B9160000B9160000B9160000C4
:10010000B9160000B9160000B9160000B9160000B3
:10011000B9160000B9160000B9160000B9160000A3
:10012000B9160000B9160000B9160000B916000093
:10013000B9160000B9160000B9160000B916000083
:10014000B9160000B9160000B9160000B916000073
:1001500001480068704700BFF400002083B0CDF86C
:1001600000E000F0FF031A09104603F00F021346E7
:1001700014E0194A02921FE0184A02921CE0184A41
:10018000029219E0174A029216E0174A029213E00F
:10019000164A029210E0164A02920DE00028E8D0BA
:1001A0000128E9D00228EAD00328EBD00428ECD0BB
:1001B0000528EDD00628EED0012212B29A40ADF803
:1001C000042002980A46BDF8041000F0BFFADDF8DA
:1001D00000E003B0704700BF00080140000C014080
:1001E000001001400014014000180140001C0140B3
:1001F0000020014082B0CDF800E00346194601918D
:10020000FFF7A6FF40F2E83100FB01F201990A6016
:100210001F490978C1F30311C8B21E4909180878AB
:10022000C0B21A1D1968C140116019490988C1F38B
:10023000022188B2174909180878C0B203F20802EF
:10024000191D0968C140116011490988C1F3C22113
:1002500088B2104909180878C0B203F20C02191DBF
:100260000968C14011600A490988C1F3813188B227
:10027000094909180978C8B203F2100203F20C0107
:100280000968B1FBF0F11160DDF800E002B07047E1
:1002900004100240781A0000881A000081B0194941
:1002A00000EA0101084600220EE0042022E00820B6
:1002B00020E010201EE020201CE040201AE08020DA
:1002C00018E040F2001015E00F498842EDD00F49C8
:1002D0008842ECD00E498842EBD00E498842EAD0E1
:1002E0000D498842E9D00D498842E8D00C4988423E
:1002F000E7D010460B49096841EA000209490A6043
:1003000001B0704700FCFFFF00080140000C0140F5
:10031000001001400014014000180140001C014081
:10032000002001401810024040F20B07C0F2000705
:100330007F1EFDD100BF00BF00BF00BF00BF7047E0
:1003400081B0CDF800E0012252B23E490A6000F2CD
:1003500068010B686FF0006103EA0102144603F0C4
:100360000061C90E0B4602F00041B1F1004F02D10D
:1003700035490A6801E035490A6804F47021090C1E
:100380000E464FF6FF7104EA01010D4604F44011D8
:10039000B1F5401F0DD16FF0706102EA01010E4608
:1003A0002A490A686FF070610A4028490A6032469B
:1003B00016E004F48011B1F5801F09D14FF003015C
:1003C000B140C94302EA010141F070610A4607E009
:1003D000610D090105FA01F1C9430A4042F070625A
:1003E0002BB1610D090105FA01F10A43FFE704F0A1
:1003F0000041B1F1004F02D113490A6001E01349F5
:100400000A6040F2000A81464FEA8A0109EB0101C5
:100410000968B1F1FF3F10D009F134014FEA8A03B6
:10042000C91809680A4609EB03010968084611461C
:10043000FFF794FE0AF1010AE6E7DDF800E001B0FB
:10044000704700BF000342421C000140040001400D
:1004500089B0CDF800E0834698B28C46BDF82410F0
:100460000A9E04ACADF80410ADF808002046FFF772
:10047000C1FEBDF80800BDF80410644CA34512D1BC
:1004800001256DB2624C2560624D634C2560634D61
:10049000634C2560634D644C2560644D644C25605D
:1004A000079C039456E0634CA34512D101256DB21D
:1004B000614C2560614D584C2560614D584C25605C
:1004C000604D594C2560604D594C2560069C039445
:1004D00040E05E4CA34512D101256DB25C4C256015
:1004E0005C4D4D4C25605C4D4D4C25605B4D4E4C3C
:1004F00025605B4D4E4C2560069C03942AE0594CC8
:10050000A34512D101256DB2574C2560574D424C81
:100510002560574D424C2560564D434C2560564D45
:10052000434C2560069C039414E0544CA34511D120
:1005300001256DB2524C2560524D374C2560524D0D
:10054000374C2560514D384C2560514D384C256055
:10055000069C0394ADF80410ADF808003046FFF790
:10056000EFFEBDF80800BDF804100BF110050024E3
:100570002C600BF110052C680C432C600BF10C0562
:1005800000242C6018B140F4806080B2FFE70BF1CA
:100590000C052C6804432C600BF10C060125346813
:1005A00065F34D3434600BF10C060125346865F3B6
:1005B000C30434600BF10C060125346865F3820432
:1005C00034600BF1140500242C60039D192465434D
:1005D0004FEA8C04B5FBF4F76424B7FBF4F426016E
:1005E000350964246C433C1B240104F23205642465
:1005F000B5FBF4F404F00F0446EA04040BF108051B
:10060000A4B22C60DDF800E009B07047003801406A
:1006100038034242A1090000F8000020FFFFFFFF5D
:10062000FC000020FFFFFFFF00010020FFFFFFFF95
:100630000401002000440040C4034242BD09000000
:10064000FFFFFFFFFFFFFFFFFFFFFFFF004800402E
:10065000C80342425D090000FFFFFFFFFFFFFFFFED
:10066000FFFFFFFF004C0040CC034242B90B0000EB
:10067000FFFFFFFFFFFFFFFFFFFFFFFF00500040F6
:10068000D00342425D0B0000FFFFFFFFFFFFFFFFB3
:10069000FFFFFFFF81B0ADF800100146BDF800007C
:1006A0000B68C3F3C01202B9FAE70A1D106001B06B
:1006B0007047FFFF81B0CDF800E000F234040A0972
:1006C00092B293B2226863F30412226000F23404FF
:1006D000CA0892B293B2226863F3C302226000F2A6
:1006E00034048A0892B293B2226863F382022260D1
:1006F00000F234044A0892B293B2226863F34102D2
:10070000226000F234048BB2226863F3000222609C
:1007100000F208040123226863F30002226000F261
:1007200008040123226863F396522260FFF7FCFD60
:100730000368C3F3400202B9FAE700F24C02126800
:1007400090B2DDF800E001B07047FFFF81B0CDF856
:1007500000E08CB21546774B00EA03031E461846AC
:10076000FFF79CFDB4F1FF0F0CD1734B9D4203D1F9
:100770004FF033333360D9E0422D03D14FF044338F
:100780003360D3E04FF6FF739C4214D16A4B9D4215
:1007900007D14FF033333360341D4FF033332360D0
:1007A000C4E0422D07D14FF044333360341D4FF085
:1007B00044332360BAE00021002005F001030BB1AF
:1007C00000211DE005F0020333B105F4C0730BB145
:1007D000082100E0042113E005F0040333B105F023
:1007E00020030BB1042100E0002109E005F008031B
:1007F00033B105F020030BB10C2100E00821FFE725
:100800004E4B05EA03030BB1032009E005F4007326
:100810000BB1022004E005F480630BB10120FFE777
:1008200005F00C030BB10143FFE704F0FF039BB29B
:10083000002B3BD0376800201FFA84F832462E4642
:1008400008282CD24FF0010303FA00F408EA04034D
:10085000A34222D185004FF00F03AB40DB4307EAF0
:10086000030401FA05F344EA03031D4606F4817309
:10087000B3F5817F05D102F214044FF001038340E8
:10088000236006F08203822B05D102F210044FF0A0
:100890000103834023602F46FFE7401CD0E7176029
:1008A0001FFA88F00F463146164602E00F462946E9
:1008B000A0B2B0F1FF0F39D9331DD3F80080002268
:1008C000082A30D202F208044FF0010303FA04F4BC
:1008D00000EA0403A34224D195004FF00F03AB407C
:1008E000DB4308EA030807FA05F348EA030801F4C2
:1008F0008173B3F5817F07D106F2140502F2080473
:100900004FF00103A3402B6001F08203822B07D13B
:1009100006F2100502F208044FF00103A3402B6019
:10092000FFE7521CCCE7331DC3F80080DDF800E080
:1009300001B0704700FCFFFF140008000008080029
:1009400081B0CDF800E081B20348FFF7B3FEDDF8D7
:1009500000E001B0704700BF0024014081B0CDF835
:1009600000E081B20348FFF795FEDDF800E001B03A
:10097000704700BF0048004081B0CDF800E0019D05
:100980002C4610B408B493B28AB201460348FFF76C
:100990005FFD02B0DDF800E001B0704700380140B3
:1009A00081B0CDF800E081B20348FFF773FEDDF8B7
:1009B00000E001B0704700BF0038014081B0CDF8C1
:1009C00000E081B20348FFF765FEDDF800E001B00A
:1009D000704700BF0044004081B0CDF800E0019DA9
:1009E0002C4610B408B493B28AB201460348FFF70C
:1009F0002FFD02B0DDF800E001B070470044004078
:100A000081B0031D1A68464902EA0101196000F22B
:100A100008031A68434902EA01011960031D002214
:100A2000196862F310411960031D0022196862F30E
:100A300051411960031D0022196862F39241196047
:100A4000031D0022196862F3D3411960031D0022BF
:100A5000196862F30821196000F20803002219687E
:100A600062F34101196000F208030022196862F381
:100A7000CB21196000F208030122196862F3514189
:100A8000196000F208030122196862F392411960AB
:100A900000F208030122196862F3D341196000F2E1
:100AA0002C030022196862F31451196000F22C0320
:100AB0000022196862F35551196000F22C030022DC
:100AC000196862F39651196000F22C03002219682C
:100AD00062F3D751196000F208030122196862F32A
:100AE0000001196000F208030122196862F3C301D2
:100AF000196000F208010A68C2F3C00101B1F8E709
:100B000000F208030122196862F38201196000F201
:100B100008010A68C2F3800101B1F8E701B070472B
:100B2000FFFEF0FFFDF7F1FF81B0CDF800E0044AD1
:100B300089B2FFF70BFEDDF800E001B0704700BF9F
:100B40001400080081B0CDF800E04FF0420289B2F5
:100B5000FFF7FCFDDDF800E001B0704781B0CDF893
:100B600000E081B20348FFF795FDDDF800E001B039
:100B7000704700BF0050004081B0CDF800E04FF05A
:100B8000010289B2FFF7E2FDDDF800E001B0704735
:100B900081B0CDF800E0019D2C4610B408B493B2AA
:100BA0008AB201460348FFF753FC02B0DDF800E0CB
:100BB00001B070470048004081B0CDF800E081B23C
:100BC0000348FFF767FDDDF800E001B0704700BFA4
:100BD000004C004001490860704700BFA801224254
:100BE00001490860704700BFAC012242014908601A
:100BF000704700BF9881214201490860704700BFDB
:100C0000A881224201490860704700BFA4812242A6
:100C100001490860704700BFA08122420149086075
:100C2000704700BF8C01224201490860704700BF35
:100C3000B881224201490860704700BF9C8121426F
:100C400001490860704700BF9401214201490860D2
:100C5000704700BF9C81214201490860704700BF76
:100C60009881214281B0CDF800E007490748016032
:100C7000012149B2064801600648FFF7C1FEDDF8D0
:100C800000E001B0704700BF41090000F000002003
:100C9000240342420024014081B0CDF800E01FFA55
:100CA00080FA012109B201FA0AF188B200F010F8C5
:100CB000FFF7D8FF1FFA8AF0FFF742FE012252B277
:100CC00002490A60DDF800E001B07047008124426B
:100CD00081B0CDF800E01FFA80F9C9F3000121B11D
:100CE00040F201013F48FFF747FFC9F3400121B13E
:100CF00040F202013B48FFF73FFFC9F3800121B1F9
:100D000040F204013748FFF737FFC9F3C00121B1B2
:100D100040F208013348FFF72FFFC9F3001121B15A
:100D200040F210012F48FFF727FFC9F3401121B10E
:100D300040F220012B48FFF71FFFC9F3801121B1BA
:100D400040F240012748FFF717FFC9F3C01121B156
:100D500040F280012348FFF70FFFC9F3002121B1C2
:100D600040F201012048FFF707FFC9F3402121B1FC
:100D700040F202011C48FFF7FFFEC9F3802121B1B8
:100D800040F201011948FFF7F7FEC9F3C02121B174
:100D900040F202011548FFF7EFFEC9F3003121B11F
:100DA00040F204011148FFF7E7FEC9F3403121B1D9
:100DB00040F208010D48FFF7DFFEC9F3803121B191
:100DC00040F210010948FFF7D7FEC9F3C03121B145
:100DD00040F220010548FFF7CFFEDDF800E001B04A
:100DE000704700BF00080140000C014000100140A6
:100DF00001490860704700BFB08122420149086084
:100E0000704700BFB001224201490860704700BF2F
:100E1000AC81224201490860704700BF94812242A0
:100E200001490860704700BF98812242014908606B
:100E3000704700BF8001214281B0CDF800E0094930
:100E400002B440F2000340F2000240F20001FFF75A
:100E500093FD01B0044A05490A600020DDF800E076
:100E600001B07047AC190000A1090000E4000020A7
:100E700081B0CDF800E0094902B440F2000340F22D
:100E8000000240F20001FFF7A7FD01B0044A054946
:100E90000A600020DDF800E001B070474019000052
:100EA000BD090000E400002081B0CDF800E0017829
:100EB000CCB2A0B2034C2468A0470020DDF800E0CB
:100EC00001B07047E400002081B0CDF800E009498E
:100ED00002B440F2000340F2000240F20001FFF7CA
:100EE0007BFD01B0044A05490A600020DDF800E0FE
:100EF00001B0704740190000BD090000E400002067
:100F000081B0CDF800E0A9E0012905D140F210013F
:100F10006548FFF717FE04E040F210016248FFF752
:100F200003FEBBE0012905D140F204015F48FFF751
:100F300009FE04E040F204015C48FFF7F5FDADE076
:100F4000012905D142F200015948FFF7FBFD04E0F9
:100F500042F200015648FFF7E7FD9FE0012905D165
:100F600040F200415148FFF7EDFD04E040F200413E
:100F70004E48FFF7D9FD91E0012905D140F6000167
:100F80004A48FFF7DFFD04E040F600014748FFF75D
:100F9000CBFD83E0012905D141F200014348FFF771
:100FA000D1FD04E041F200014048FFF7BDFD75E0CE
:100FB000012905D140F201013B48FFF7C3FD04E0E0
:100FC00040F201013848FFF7AFFD67E0012905D184
:100FD00040F200413648FFF7B5FD04E040F2004121
:100FE0003348FFF7A1FD59E0012905D140F2002166
:100FF0002F48FFF7A7FD04E040F200212C48FFF73F
:1010000093FD4BE0012905D140F200112848FFF77C
:1010100099FD04E040F200112548FFF785FD3DE011
:10102000012905D140F240012248FFF78BFD04E081
:1010300040F240011F48FFF777FD2FE0012905D15D
:1010400040F280011B48FFF77DFD04E040F2800183
:101050001848FFF769FD21E0012020E000283FF457
:1010600053AF01283FF45EAF02283FF469AF032875
:101070003FF474AF04283FF47FAF05283FF48AAFF4
:1010800006283FF495AF0728A0D00828ACD009283F
:10109000B8D00A28C4D00B28D0D0DDE70020DDF876
:1010A00000E001B0704700BF00080140001001409F
:1010B00000140140000C014081B0CDF800E0A9E02F
:1010C000012905D140F220016548FFF73BFD04E00E
:1010D00040F220016248FFF727FDBBE0012905D15E
:1010E00040F208015F48FFF72DFD04E040F20801DF
:1010F0005C48FFF719FDADE0012905D144F200017C
:101100005948FFF71FFD04E044F200015648FFF77D
:101110000BFD9FE0012905D140F200415148FFF746
:1011200011FD04E040F200414E48FFF7FDFC91E064
:10113000012905D140F600014A48FFF703FD04E00C
:1011400040F600014748FFF7EFFC83E0012905D195
:1011500041F200014348FFF7F5FC04E041F20001D1
:101160004048FFF7E1FC75E0012905D141F200019B
:101170003D48FFF7E7FC04E041F200013A48FFF781
:10118000D3FC67E0012905D140F600013648FFF79E
:10119000D9FC04E040F600013348FFF7C5FC59E0F4
:1011A000012905D140F240012F48FFF7CBFC04E0B4
:1011B00040F240012C48FFF7B7FC4BE0012905D174
:1011C00040F220012848FFF7BDFC04E040F2200176
:1011D0002548FFF7A9FC3DE0012905D140F2400177
:1011E0002248FFF7AFFC04E040F240011F48FFF740
:1011F0009BFC2FE0012905D140F280011B48FFF73D
:10120000A1FC04E040F280011848FFF78DFC21E0CA
:10121000012020E000283FF453AF01283FF45EAFE7
:1012200002283FF469AF03283FF474AF04283FF469
:101230007FAF05283FF48AAF06283FF495AF072813
:10124000A0D00828ACD00928B8D00A28C4D00B28D0
:10125000D0D0DDE70020DDF800E001B0704700BF2E
:10126000000801400010014000140140000C014042
:1012700081B0CDF800E0094902B440F2000340F229
:10128000000240F20001FFF783FC01B0044A054967
:101290000A600020DDF800E001B07047D4180000BB
:1012A0005D090000E400002000F230010A680349F3
:1012B0000A60011D0A6802490A607047EC000020BC
:1012C000E800002001490860704700BFB481224255
:1012D00001490860704700BF880122420149086047
:1012E000704700BFA801224201490860704700BF53
:1012F000B001224201490860704700BFAC012242A0
:1013000001490860704700BF9001214281B0CDF8CB
:1013100000E05FFA81F95FFA82FA0FE05FFA8AF182
:101320005FFA89F0FFF7ECFD0DE05FFA8AF15FFAF2
:1013300089F0FFF7C1FE06E0012004E00028EDD0AF
:101340000128F2D0F8E7DDF800E001B07047FFFFB8
:1013500081B0CDF800E0FFF7A7FFDDF800E001B0B5
:101360007047FFFF81B0CDF800E00420FFF794FC48
:10137000DDF800E001B0704741F6FF27C0F2B70783
:101380007F1EFDD100BF00BF00BF00BF00BF704780
:1013900081B00A4681B200208DB21146052805D2DF
:1013A0000B1820221A70401CC0B2F7E70B1800225D
:1013B0001A70401EC0B20C180A23B5FBF3F203FBEF
:1013C000125292B2303222700A22B5FBF2F292B27D
:1013D00095B202B902E0401EC0B2ECE701B070471E
:1013E00083B0CDF800E0024610460D228DF80820AB
:1013F0000A228DF809201FE0FFF756FD23E002784E
:101400002AB10190FFF750FD0198401CF7E71AE060
:1014100002782AB10190FFF747FD0198401CF7E7D9
:1014200002AA1046FFF740FD0DF109021046FFF732
:101430003BFD08E0062007E00029DDD00129DED0D1
:101440000229E5D0F6E70020DDF800E003B07047A0
:1014500044F67F77C0F212077F1EFDD100BF00BFA8
:1014600000BF00BF00BF704781B0CDF800E0012091
:10147000034C2468A047DDF800E001B0704700BFCE
:10148000E800002081B0CDF800E011E00846FFF749
:10149000EFFE16E00846FFF717FD12E00846FFF7DB
:1014A000CBFC0EE00846FFF7E3FC0AE0012008E071
:1014B0000028EBD00128EDD02028EFD03028F1D043
:1014C000F4E7DDF800E001B07047FFFF81B0CDF830
:1014D00000E0FFF7C7FB40F21000FFF7F9FBDDF873
:1014E00000E001B07047FFFF81B01CF8019B0BF8D2
:1014F000019BBBEB0A0FF8D101B0704781B01548D2
:10150000006840F00101134801601349134801606D
:1015100010480168124801400E4801600D480168FA
:101520006FF4802001400B4801600C4801686FF4A3
:10153000FE00014009480160064801686FF0A050B4
:101540000140044801604FF000010648016001B00D
:10155000704700BF001002400000FFF0041002407E
:10156000FFFFF6FE2C10024081B0CDF800E0FFF73F
:10157000F9FE0C49088080B20B49FFF709FF0B48C0
:101580000121FFF72DFF02210748FFF729FF084837
:101590000221FFF725FFFFF7EFFEDDF800E001B0C5
:1015A000704700BFAE000020B00000208C0000207B
:1015B0009A00002081B0CDF800E01148FFF7C8FE86
:1015C000FFF746FF0F480221FFF70AFFFFF74CFF26
:1015D000FFF73EFF0C480221FFF702FF0B480221F4
:1015E000FFF7FEFEFFF772FFFFF732FF0848022108
:1015F000FFF7F6FEFFF72CFFDDF800E001B07047C3
:10160000181A00003C000020500000206400002058
:101610007800002081B0CDF800E0012200210020F8
:10162000FFF774FE002201210020FFF76FFE42F257
:1016300080512020FFF726FF08480221FFF7D0FE47
:1016400007480221FFF7CCFE06480221FFF7C8FE3B
:10165000FFF7FEFEDDF800E001B07047000000205B
:10166000140000202800002081B04FF000094FF046
:10167000000CBDEB0A0F04DCBDEB0B0F01DBD44605
:10168000EA464BF8049BBBEB0A0FFAD1BCEB0A0FFE
:1016900005DDE246D9F800B00BF1040BF1E701B02B
:1016A0007047FFFF81B002490248016001B07047F6
:1016B00040190100F400002081B0FEE701B070473E
:1016C00081B0CDF800E0464A464B474C47494BF6BF
:1016D0008030814206D94648006840F00201444803
:1016E000016011E045F6C050814206D940480068CB
:1016F00040F001013E48016006E03D4801686FF09E
:10170000070001403A480160FFF7F8FE39480360DE
:1017100039480460394802EA00013948016002F0A2
:10172000010040B119463648006800F00200002868
:1017300000D1F8E700E0194602F4803040B10B46D2
:101740002F48006800F40030002800D1F8E700E0DE
:101750000B4602F0805068B12948006840F0805183
:10176000274801602648006800F00050002800D19A
:10177000F8E7FFE702F0806078B12148006840F0A8
:1017800080611F48016011461A461D48006800F03C
:101790000060002800D1F8E701E011461A4601F088
:1017A000807070B11648006840F080711448016084
:1017B00011461348006800F0007000B9F9E70A46C6
:1017C000FFE70C48006800F00C01900000F00C00EE
:1017D000814200D0F5E7DDF800E001B0704700BFBE
:1017E0008100010502841D0044060100401901002A
:1017F00000200240041002402C100240FFFF0F00A6
:1018000000100240FFF75CFF00F080F9FFF74AFF8D
:1018100000F03CF9FFF7FEFEFFF7CCFEFFF7A4FE59
:10182000FCE7FEE72D2D2D2D2D2D2D2D2D2D2D2DD4
:101830002D2D2D2D2D2D2D002049522044697374FE
:10184000616E636520636C69636B20002D2D2D2D07
:101850002D2D2D2D2D2D2D2D2D2D2D2D2D2D2D00E5
:101860002020456E61626C652049522073656E735D
:101870006F7220002D2D2D2D2D2D2D2D2D2D2D2D4B
:101880002D2D2D2D2D2D2D00496E697469616C69EA
:101890007A6174696F6E2020414443002D2D2D2DF7
:1018A0002D2D2D2D2D2D2D2D2D2D2D2D2D2D2D0095
:1018B000204144432076616C7565203A20002D2D2F
:1018C0002D2D2D2D2D2D2D2D2D2D2D2D2D2D2D2D48
:1018D0002D00FFFF3800000039000000FFFFFFFF70
:1018E00000000000000000000000000000000000F8
:1018F00000000000000000000000000000000000E8
:10190000000000000000000018080000180000009F
:1019100000000000000000000000000000000000C7
:1019200000000000000000000000000000000000B7
:10193000000000000000000000000000300014085B
:101940003500000036000000FFFFFFFF0000000030
:101950000000000000000000000000000000000087
:101960000000000000000000000000000000000077
:10197000000000001808000018000000000000002F
:101980000000000000000000000000000000000057
:101990000000000000000000000000000000000047
:1019A000000000000000000008000008090000001E
:1019B0000A000000FFFFFFFF000000000000000021
:1019C0000000000000000000000000000000000017
:1019D0000000000000000000000000000000000007
:1019E00018080000180000000000000000000000BF
:1019F00000000000000000000000000000000000E7
:101A000000000000000000000000000000000000D6
:101A1000000000000400000001130000D1120000CB
:101A2000C5120000DD120000F5120000E9120000EE
:101A30002D0E0000F90B0000050C0000110C000039
:101A4000ED0B0000350C0000FFFFFFFFFFFFFFFF65
:101A5000FFFFFFFFFFFFFFFFFFFFFFFFFFFFFFFF96
:101A6000FFFFFFFFFFFFFFFFFFFFFFFFFFFFFFFF86
:101A7000FFFFFFFFFFFFFFFF000000000102030464
:101A800001020304060708090204060800B5DFF88E
:101A900014B0DFF814A0DFF814C0FFF725FD00BD77
:101AA000704700BF00000020AE0000202418000096
:101AB000FFFFFFFFFFFFFFFFFFFFFFFFFFFFFFFF36
:101AC000FFFFFFFFFFFFFFFFFFFFFFFFFFFFFFFF26
:101AD000FFFFFFFFFFFFFFFFFFFFFFFFFFFFFFFF16
:101AE000FFFFFFFFFFFFFFFFFFFFFFFFFFFFFFFF06
:101AF000FFFFFFFFFFFFFFFFFFFFFFFFFFFFFFFFF6
:101B0000FFFFFFFFFFFFFFFFFFFFFFFF00B5DFF855
:101B100010B0DFF810A0FFF7A7FD00BD704700BFB1
:101B20000000002008010020FFFFFFFFFFFFFFFF74
:00000001FF
