:100000005EEF16F00000000000EF00F000000000BE
:0A0010000000000000000000F3D71C
:08001C000AAE029E000E120064
:100024000B820BAE1CEF00F00368026801680068E5
:080034000A360232FF0E120031
:0E003C00026A016A006A086A036A000E120076
:10004A000B840BAE30EF00F0010E036E026A016AF8
:0A005A00006A0A360232FF0E12009F
:100064000CB074EF00F00CA21AEF01F00E6A000E4F
:1000740002648BEF00F0F00E0214D8A456EF00F0E7
:10008400023A01380F0B02260138F00B016E0038DA
:100094000F0B01260038F00B006E08380F0B0026FA
:1000A4000838F00B086E0E84D89002BE6FEF00F093
:1000B40008360036013602360E2A02BE6FEF00F013
:1000C40008360036013602360E2A02BE6FEF00F003
:1000D40008360036013602360E2A0E50036410EF3D
:1000E40001F0035E0BBC08AE15EF01F0D880800E62
:1000F40008640030000E002201220222D8A015EF6D
:1001040001F0023201320032034A1AEF01F015EF16
:1001140001F001C002F000C001F008C000F0086A5C
:10012400000E0E860264C2EF00F0F00E0214D8A492
:10013400AAEF00F0023A01380F0B02260138F00B47
:10014400016E00380F0B01260038F00B006E0E8490
:10015400D89002BE6FEF00F00036013602360E2A48
:1001640002BE6FEF00F00036013602360E2A02BEE0
:100174006FEF00F00036013602360E2A6FEF00F002
:1001840001C002F000C001F0006A000E0E960E8855
:100194000264EFEF00F0F00E0214D8A4DAEF00F0DE
:1001A400023A01380F0B02260138F00B016E0E845F
:1001B400D89002BE6FEF00F0013602360E2A02BE5E
:1001C4006FEF00F0013602360E2A02BE6FEF00F028
:1001D400013602360E2A6FEF00F001C002F0016A08
:1001E400000E0E8602641FEF01F0F00E0214D8A474
:1001F400FEEF00F0023A0E84D89002BE6FEF00F0DA
:1002040002360E2A02BE6FEF00F002360E2A02BE3C
:100214006FEF00F002360E2A6FEF00F0010E0C6E45
:1002240012DF22EF01F0020E0C6EF6DE22EF01F077
:10023400040E0C6EF5DE22EF01F0080E0C6EFCDEEF
:020244001200A6
:10024600025006180E6E086A096A0B6A03500764A4
:1002560016EF02F006500A6E068E028E03500B6EE3
:100266000750036E000E0B6466EF01F00B50075E3D
:10027600D8B407EF02F0070E0764D5EF01F0075E6A
:1002860000C008F001C000F002C001F0026A074E8B
:1002960007EF02F00764AAEF01F0075E00C008F05E
:1002A60001C000F0016A074E07EF02F0076488EF0D
:1002B60001F0075E00C008F0006A074E07EF02F083
:1002C60007646FEF01F00AC002F005C001F004C038
:1002D60000F0086A30EF03F0030E07647AEF01F0CE
:1002E600075E08380F0B086E074E07EF02F0D8902E
:1002F6000832074E07EF02F0D8900832074E07EF94
:1003060002F0D890083207EF02F0030E076499EF67
:1003160001F0075E08380F0B086E0038F00B082650
:1003260000380F0B006E074E07EF02F0D890003230
:100336000832074E07EF02F0D89000320832074E17
:1003460007EF02F0D8900032083207EF02F0030EF2
:100356000764C1EF01F0075E08380F0B086E00381E
:10036600F00B082600380F0B006E0138F00B002644
:1003760001380F0B016E074E07EF02F0D8900132DD
:1003860000320832074E07EF02F0D89001320032F1
:100396000832074E07EF02F0D890013200320832D9
:1003A60007EF02F0030E0764F2EF01F0075E08386C
:1003B6000F0B086E0038F00B082600380F0B006E86
:1003C6000138F00B002601380F0B016E0238F00BD6
:1003D600012602380F0B026E074E07EF02F0D89087
:1003E6000232013200320832074E07EF02F0D8908F
:1003F6000232013200320832074E07EF02F0D8907F
:100406000232013200320832096A000E0EAEFBEFEC
:1004160002F0081E001E011E021E082A00220122EA
:100426000222FBEF02F00750D8A41CEF02F030EFD7
:1004360003F0096A02C00AF0028E068E0750035CBA
:10044600076ED8B4EEEF02F0070E0764BCEF02F0B9
:10045600075E0450096E0550046E0650056E066A66
:10046600074EEEEF02F0070E076491EF02F0075E0B
:100476000450096E0550046E056A074EEEEF02F051
:10048600070E07646FEF02F0075E0450096E046AF8
:10049600074EEEEF02F0070E076456EF02F00AC0B1
:1004A60002F030EF03F0030E076461EF02F0075E1F
:1004B60009380F0B096E074EEEEF02F0D89009329D
:1004C600074EEEEF02F0D8900932074EEEEF02F03B
:1004D600D8900932EEEF02F0030E076480EF02F0C7
:1004E600075E09380F0B096E0438F00B092604382D
:1004F6000F0B046E074EEEEF02F0D890043209326D
:10050600074EEEEF02F0D89004320932074EEEEFB6
:1005160002F0D89004320932EEEF02F0030E0764BF
:10052600A8EF02F0075E09380F0B096E0438F00BCE
:10053600092604380F0B046E0538F00B042605381F
:100546000F0B056E074EEEEF02F0D890053204321F
:100556000932074EEEEF02F0D89005320432093226
:10056600074EEEEF02F0D890053204320932EEEF74
:1005760002F0030E0764D9EF02F0075E09380F0B8D
:10058600096E0438F00B092604380F0B046E053883
:10059600F00B042605380F0B056E0638F00B052602
:1005A60006380F0B066E074EEEEF02F0D8900632B5
:1005B600053204320932074EEEEF02F0D8900632C9
:1005C600053204320932074EEEEF02F0D8900632B9
:1005D600053204320932086A000E0EAEFBEF02F055
:1005E600091E041E051E061E092A042205220622CD
:1005F6000950082604500022055001220650022206
:100606000EBE12EF03F0D8A021EF03F00232013242
:1006160000320832033E21EF03F02BEF03F0D8B08F
:1006260026EF03F0000E081E001E011E021E082AF9
:100636000022012202220A7E26EF03F0010E0C6E32
:100646000EDD32EF03F0020E0C6E09DD32EF03F021
:10065600040E0C6EE4DC32EF03F0000E0C6E12009A
:100666000B800BAE3FEF03F0026A0AAEFF0E026E7E
:0C067600016E006E0A360232FF0E120008
:100682000A6A0350D8A40A800750D8A40A820A50E2
:10069200D8B4A4EF03F0030AD8B45DEF03F00AB0B4
:1006A20058EF03F006AEA2EF03F0A0EF03F002AEA4
:1006B200A0EF03F0A2EF03F00250800B0A6E029E3D
:1006C2000650800B069E0A18D8B46EEF03F00A504B
:1006D200D8B4A0EF03F0A2EF03F00750035CD8B444
:1006E20078EF03F0D8A094EF03F09AEF03F00650EE
:1006F200025CD8B482EF03F0D8A094EF03F09AEF33
:1007020003F00550015CD8B48CEF03F0D8A094EF4D
:1007120003F09AEF03F00450005CD8B4A4EF03F0A6
:10072200D8B09AEF03F00A52D8B4A2EF03F0A0EFC8
:1007320003F00A52D8B4A0EF03F0A2EF03F0D8807E
:0E0742001200D8901200D880D8841200120045
:100750000C6A0E6A0250D8A4C1EF03F001C002F087
:1007600000C001F0006A0E860250D8A4C1EF03F069
:1007700001C002F0016A0E960E880250D8B4D3EF81
:1007800003F00E50035ED8A4D8A0D8EF03F0D890A1
:1007900002BEDDEF03F0003601360236032EC8EF4D
:1007A00003F0D8EF03F0010E0C6E48DCE0EF03F02D
:1007B000020E0C6E4ADCE0EF03F0040E0C6E2EDC31
:0207C000120025
:1007C200086A096A000E0762036466EF04F00250C9
:1007D20006180A6E075003267E0ED8A0F7EF03F024
:1007E200035ED8B06BEF04F0FBEF03F0035ED8A01A
:1007F20070EF04F0028E068E02C00EF001C00BF004
:1008020000C00DF000500402F4CF0CF001500502BC
:10081200F4CF00F0F3CF08F00402F3500C26F450AA
:100822000822000E00220D500502F3500C26F4504F
:100832000822000E002202500402F3500826F4504F
:10084200002202500502016A000E0122F350002626
:10085200F45001220D500602F3500826F4500022F3
:10086200026A000E012202220B500602F3500026F9
:10087200F4500122000E02220E500602F35001260D
:10088200F450022202BE4EEF04F008360036013662
:1008920002360306D8B470EF04F061EF04F0D8809A
:1008A200800E08640030000E002201220222D8A02D
:1008B20061EF04F0023201320032034A6BEF04F0BE
:1008C2000AAE029E000E73EF04F0010E1EEC00F061
:1008D20073EF04F0020E12EC00F073EF04F0040E5A
:0608E20025EC00F01200FD
:0608E800067EADDC1200EB
:1008EE000050086E0150006E0250016E0350026EF1
:1008FE00036A0B6A0C6A9E0E036E0A6A02AE94EFCE
:10090E0004F0081E001E011E021E082AD8B4002A7A
:10091E00D8B4012AD8B4022A0A8E020E0C6E32EC1A
:04092E0000F01200C3
:100932000B6A0C6A086A0350D8B41DEF05F002C0B6
:100942000AF0028E9E0E035E03AE0DEF05F0036CFD
:10095200080E035CD8A0DAEF04F0036E083600C07C
:1009620008F001C000F002C001F0026A080E035C48
:10097200D8A0DAEF04F0036E083600C008F001C018
:1009820000F0016A080E035CD8A0DAEF04F0036EEF
:10099200083600C008F0006A080E035CD8A0DAEF3F
:1009A20004F0036E0836086A0350D8A4D890E6EF24
:1009B20004F00350D8B4E6EF04F0D89002320132CA
:1009C20000320832032EDEEF04F00BBC08A0F7EF72
:1009D20004F0D8A0F7EF04F0082AD8B4002AD8B45B
:1009E200012AD8B4022A02BE21EF05F00AAE1DEF99
:1009F20005F0021E011E001E081E082AD8B4002A95
:100A0200D8B4012AD8B4022A1DEF05F0026A016A9D
:100A1200006A086A1DEF05F00B800BAE27EF05F0A8
:100A2200026A0AAE27EF05F0026E016E006E086ED2
:100A32000A36023227EF05F00C6A000E28EF05F0A5
:100A4200010E0C6E000E0EDE28EF05F0FF0E0250B6
:100A5200036E0150026E0050016E0850006E1200CB
:080A62000B6A0B86FF0E120067
:0E0A6A000001C8B102D08A9401D08A84120023
:0E0A78000001C8B102D08F9401D08F8412000B
:0E0A86000001C8B102D08B9801D08B881200FD
:0E0A94000001C8B102D08B9C01D08B8C1200E7
:100AA2000B6A0350D8B497EF05F002500A6E028E1B
:100AB2008E0E035E03AE9BEF05F0036C080E035C23
:100AC200D8A076EF05F0036E013602C001F0026A8B
:100AD200080E035CD8A076EF05F0036E0136016ABA
:100AE2000350D8A4D89080EF05F00350D8B480EF1B
:100AF20005F0D89002320132032E7AEF05F00BBCDA
:100B020001A08DEF05F0D8A08DEF05F0012AD8B431
:100B1200022A02BEAAEF05F00AAEAFEF05F0021EEE
:100B2200011E012AD8B4022AAFEF05F0026A016A57
:100B3200AFEF05F00B800BAEB3EF05F0026A0AAE21
:100B4200B3EF05F0FF0E026E016E0A360232B3EF0A
:100B520005F0010E0C6E86DDB5EF05F0000E0C6E91
:100B6200B5EF05F0FF0E0C6E0150006E0250016EE3
:020B720012006F
:0E0B74000001C8B102D08B9A01D08B8A12000A
:0E0B82000001C8B102D08F9001D08F80120008
:100B9000CBC000F0016A026A036AFF0E0016000E65
:100BA000011600C0D0F001C0D1F07F0E005C026ED3
:100BB000000E0158036E02C0D0F003C0D1F0800EC9
:100BC0000318006E800E005C02E1000E025C21E260
:100BD000046A056A066A076AC8C000F0C9C001F065
:100BE000CAC002F0CBC003F04CDD010ED8B0000E3D
:100BF000006E005209E0000E006E000E016E800EC5
:100C0000026E7F0E036E58D0006A016A026A036AA0
:100C100053D00001D151000802E1D051180809E277
:100C2000C8C000F0C9C001F0CAC002F0CBC003F0D8
:100C300043D0C8C000F0C9C001F0CAC002F0CBC0A8
:100C400003F077DE54DE00C0CCF001C0CDF002C06E
:100C5000CEF003C0CFF000C004F001C005F002C028
:100C600006F003C007F0C8C000F0C9C001F0CAC058
:100C700002F0CBC003F005DD010ED8B0000E006E0F
:100C8000005212E0000E046E000E056E000E066E9D
:100C90007F0E076ECCC000F0CDC001F0CEC002F0D8
:100CA000CFC003F021DE08D0CCC000F0CDC001F0F1
:0A0CB000CEC002F0CFC003F0120026
:0E0CBA000001C8B102D08B9E01D08B8E1200BB
:0E0CC8000001C8B102D08B9801D08B881200B9
:0E0CD6000001C8B102D0899401D089841200B7
:0E0CE4000001C8B102D0899801D089881200A1
:0E0CF2000001C8B102D08D9201D08D82120097
:0E0D00000001C8B102D08A9201D08A8212008E
:0E0D0E000001C8B102D08B9A01D08B8A12006E
:0E0D1C000001C8B102D08B9601D08B86120068
:0E0D2A000001C8B102D0899201D08982120066
:100D3800CFC000F0D0C001F0000E0001D0BFFF0E00
:100D4800026E036E00360090013602360336003616
:100D58000090013602360336CC510024F66ECD5190
:100D68000120F76ECE510220F86E0900F5CFD1F0C0
:100D78000900F5CFD2F00900F5CFD3F00900F5CF7F
:100D8800D4F0CF51D01148E0C8C000F0C9C001F07C
:100D9800CAC002F0CBC003F0D1C004F0D2C005F045
:100DA800D3C006F0D4C007F008DD010ECF5F000EF7
:100DB800D05BCFC004F0D0C005F0000ED0BFFF0E4E
:100DC800066E076E04360490053606360736043676
:100DD8000490053606360736CC510424F66ECD51FC
:100DE8000520F76ECE510620F86E0900F5CF04F005
:100DF8000900F5CF05F00900F5CF06F00900F5CF99
:100E080007F023EC01F000C0D1F001C0D2F002C01D
:100E1800D3F003C0D4F0B5D7D1C000F0D2C001F0F0
:0A0E2800D3C002F0D4C003F01200A2
:100E320003500718D8A42DEF07F002500618D8A4C3
:100E42002DEF07F001500518D8A42DEF07F0005040
:0E0E52000418D8B4D8841200D89412001200EC
:0E0E60000001C8B102D08B9601D08B86120023
:0E0E6E000001C8B102D08B9A01D08B8A12000D
:100E7C0000C008F00150006E016A026A036A0B6A36
:100E8C000C6A016A026A036A960E036E0A6A00AE65
:100E9C0056EF07F0081E001E082AD8B4002A0A8E46
:100EAC0000C001F008C000F0086A026A4BDC1200B6
:0E0EBC000001C8B102D08B9801D08B881200C3
:100ECA00C80E0001CE6F000ECF6F030ECE25D96E6D
:100EDA00000ECF21DA6EDE50CC25016E000ECD2138
:100EEA00026E01C0CCF002C0CDF0800E0218006E76
:100EFA00800E005C02E1000E015C05E2006A016AF4
:100F0A00026A036A3FD0800E006E800ECD19005C23
:100F1A0002E1CC51FF0826E2046A056A066A076AFA
:100F2A00C8C000F0C9C001F0CAC002F0CBC003F0CB
:100F3A0041EC03F0010ED8B0000E006E005209E039
:100F4A00FF0E006EFF0E016EFF0E026EFF0E036EA5
:100F5A0019D0FF0E006EFF0E016E7F0E026EFF0E9D
:100F6A00036E10D0030ECE25E16E000ECF21E26E85
:100F7A00CCC0E6FFC8C000F0C9C001F0CAC002F088
:060F8A00CBC003F01200D1
:100F9000C80E046E000E056E030E0424E96E000EEA
:100FA0000520EA6E7E0EEE5C006E016A000E015AAC
:100FB000CCC0E1FFCDC0E2FF00C0E6FF01C0E6FF0C
:100FC000030E0424E16E000E0520E26E7E0EE66E36
:100FD000C8C000F0C9C001F0CAC002F0CBC003F025
:020FE0001200FD
:0E0FE2000001C8B102D08B9201D08B821200A8
:0E0FF0000001C8B102D08B9801D08B8812008E
:0E0FFE000001C8B102D08D9401D08D84120084
:0E100C000001C8B102D08B9601D08B86120075
:0E101A000001C8B102D08F9201D08F82120067
:0E1028000001C8B102D08A9001D08A80120067
:0E1036000001C8B102D08D9601D08D86120047
:0E1044000001C8B102D08B9601D08B8612003D
:101052000450000A12E10550000A0FE10650000A8E
:101062000CE10750000A09E1FF0E006EFF0E016E4F
:101072007F0E026EFF0E036EA7D0086A096A075040
:10108200D8B4D4EF08F00350D8B4D8EF08F0025027
:1010920006180A6E028E068E0E6A02C008F001C0A1
:1010A2000CF000C00DF004500D5E0550D8A0053CB8
:1010B2000C5E0650D8A0063C085E086A0C6A0D6AEF
:1010C200D8A06BEF08F0D890023201320032083219
:1010D200010E0E6E0750035ED8A078EF08F07E0E68
:1010E2000E240326D8B0DDEF08F07EEF08F07E0E66
:1010F2000E240326D8A0E2EF08F0180E0B6E0D3670
:101102000C3608360036013602360E360450005EC2
:101112000550D8A0053C015E0650D8A0063C025EF0
:1011220006340E120EA099EF08F00D80A4EF08F01D
:10113200045000260550D8B0053C01260650D8B010
:10114200062802260D900B2E80EF08F0CAEF08F059
:10115200D8900036013602360E360450005E055035
:10116200D8A0053C015E0650D8A0063C025E0634BB
:101172000E10010B0D26D8B00C2AD8B4082AD8A418
:10118200CAEF08F008320C320D32032AD8B4DDEF70
:1011920008F00AAE089E0850026E0C50016E0D5007
:1011A200006EE5EF08F0010E5BDCE5EF08F0020EE1
:1011B2001EEC00F0E5EF08F0040E12EC00F0E5EF93
:0A11C20008F0080E25EC00F0120002
:0E11CC000001C8B102D08B9401D08B841200B8
:0E11DA000001C8B102D08B9601D08B861200A6
:0E11E8000001C8B102D08B9801D08B88120094
:0E11F6000001C8B102D08B9001D08B80120096
:0E1204000001C8B102D08D9001D08D80120083
:0E1212000001C8B102D08B9601D08B8612006D
:0E122000ACB202D00000FCD7C8C0ADFF120077
:10122E000F0121B302D00000FBD7C8C01CFF120073
:0E123E000001C8B102D0899001D08980120051
:0E124C000001C8B102D08B9801D08B8812002F
:0E125A000001C8B102D08B9E01D08B8E120015
:0E1268000001C8B102D08B9C01D08B8C12000B
:10127600200E5B6E120E5C6EC80E5D6E000E5E6E0C
:10128600FF0E576EFF0E586E000E596E000E5A6E08
:10129600FF0E476EFF0E486E000E496E000E4A6E38
:1012A600FF0E436EFF0E446E000E456E000E466E38
:1012B600AC8A900EAB6E948E949C9EAA03D0AECF51
:0612C60000F0FBD712004E
:1012CC00F250026EF29E0500FF6A0150FE6E005055
:0812DC00FD6E02BEF28E12004D
:0A12E400750E0D6E0D2EFED71200E0
:1012EE00BEC004F0BFC005F0C0C006F0C1C007F01C
:1012FE00006A016A026A036A41EC03F0000ED8B07C
:10130E00010E006E005205E0006A016A026A036A6D
:10131E006AD0BEC0C8F0BFC0C9F0C0C0CAF0C1C05C
:10132E00CBF0C20E0001CC6F000ECD6F2ADE000E88
:10133E00046E000E056E000E066E800E076EE1EC5A
:10134E0003F0000E046E000E056E000E066E7F0E8C
:10135E00076E74EC04F000C0BEF001C0BFF002C016
:10136E00C0F003C0C1F0010EC25F000EC35B00C02F
:10137E00C8F001C0C9F002C0CAF003C0CBF0780EAD
:10138E00CC6F2D0ECD6F000ECE6F080ECF6F000EF0
:10139E00D06FCBDC00C0C4F001C0C5F002C0C6F0F7
:1013AE0003C0C7F0C4C0BEF0C5C0BFF0C6C0C0F019
:1013BE00C7C0C1F0C2C000F0C3C001F058DD180EA6
:1013CE00046E720E056E310E066E7E0E076EE1EC29
:1013DE0003F0C4C004F0C5C005F0C6C006F0C7C017
:0813EE0007F023EC01F01200EE
:1013F600046A056A066A076ABEC000F0BFC001F04B
:10140600C0C002F0C1C003F011DD010ED8A4000E69
:10141600006E005209E0000E006E000E016E000E16
:10142600026E7F0E036EFDD0BEC004F0BFC005F095
:10143600C0C006F0C1C007F0FC0E006ED40E016EEF
:10144600320E026E850E036E41EC03F0010ED8B02B
:10145600000E006E005209E0FF0E006EFF0E016ED8
:101466007F0E026EFF0E036EDCD04F0E046EAC0EC6
:10147600056EAE0E066E850E076EBEC000F0BFC0CE
:1014860001F0C0C002F0C1C003F041EC03F0010E50
:10149600D8B0000E006E005205E0006A016A026ACA
:1014A600036ABFD0046A056A066A076ABEC000F00E
:1014B600BFC001F0C0C002F0C1C003F041EC03F0B0
:1014C600010ED8B0000E006E00C0C4F0005202E05B
:1014D6000001C07FBEC000F0BFC001F0C0C002F076
:1014E600C1C003F03B0E046EAA0E056E380E066EE2
:1014F6007F0E076EE1EC03F000C0BEF001C0BFF046
:1015060002C0C0F003C0C1F000C0C8F001C0C9F0FD
:1015160002C0CAF003C0CBF0C8EC05F051EC05F0F0
:1015260000C0C2F001C0C3F0A6DC00C004F001C0D8
:1015360005F002C006F003C007F0BEC000F0BFC051
:1015460001F0C0C002F0C1C003F074EC04F000C0AA
:10155600BEF001C0BFF002C0C0F003C0C1F000C0C1
:10156600C8F001C0C9F002C0CAF003C0CBF02A0E11
:101576000001CC6F2D0ECD6F000ECE6F090ECF6F12
:10158600000ED06F9CEC06F000C0C8F001C0C9F098
:1015960002C0CAF003C0CBF0C2C0CCF0C3C0CDF0CD
:1015A60091DC00C0BEF001C0BFF002C0C0F003C0B5
:1015B600C1F0C4532EE0FF0E046EFF0E056E7F0EC3
:1015C600066EFF0E076EBEC000F0BFC001F0C0C0C1
:1015D60002F0C1C003F02ADC010ED8A4000E006E92
:1015E600005205E0006A016A026A036A1AD0BEC0A8
:1015F60004F0BFC005F0C0C006F0C1C007F0000E81
:10160600006E000E016E000E026E7F0E036E1EDD72
:1016160008D0BEC000F0BFC001F0C0C002F0C1C01B
:0416260003F01200BB
:10162A002E0E5B6E120E5C6EC80E5D6E000E5E6E46
:10163A00FF0E576EFF0E586E000E596E000E5A6E50
:10164A00FF0E476EFF0E486E000E496E000E4A6E80
:10165A00FF0E436EFF0E446E000E456E000E466E80
:10166A000F01218B900E226F98849892A4AA03D01E
:08167A001DCF00F0FBD71200A8
:1016820021D0CF0EAF6EAC94F5DD6BD0670EAF6E8E
:10169200AC94F0DD66D0CF0EAF6EAC84EBDD61D0E2
:1016A200670EAF6EAC84E6DD5CD0440EAF6EAC84E8
:1016B200E1DD57D0220EAF6EAC84DCDD52D0060ED7
:1016C200006E58D0000E006E0001B41908E10050FF
:1016D200B31905E1120EB21902E1B151C00AD1E00B
:1016E200000E006EB41908E10050B31905E1250E91
:1016F200B21902E1B151800AC9E0000E006EB419BC
:1017020008E10050B31905E14B0EB21902E1B151E3
:10171200000AC1E0000E006EB41908E10050B319CE
:1017220005E1960EB21902E1B151000AB9E0000ECC
:10173200006EB41908E10050B31905E1E10EB219C7
:1017420002E1B151000AB1E0B451000A08E1B3511B
:10175200010A05E1B251C20A02E1B151000AAAE04E
:10176200AED7200E536E120E546EC80E556E000E7A
:06177200566E006A120031
:10177800360E4F6E210E506EB10E516E000E526E27
:10178800C26A2D1C006E0050C1160F0EC012C08E0A
:04179800C2801200F9
:10179C00300E0001B125F66E000EB221F76E000E70
:1017AC00B321F86E0900F5CF4BF00900F5CF4CF0E2
:1017BC000900F5CF4DF00900F5CF4EF0040EB12520
:1017CC00F66E000EB221F76E000EB321F86E090012
:1017DC00F5CF3BF00900F5CF3CF00900F5CF3DF01B
:0817EC000900F5CF3EF01200E8
:1017F40038D00F0120870D0E1F6F040E1E6F218538
:1018040012DF7ED00F012087060E1F6F820E1E6F1F
:10181400218509DF75D00F012087030E1F6F400E4D
:101824001E6F218500DF6CD00F012087010E1F6F12
:10183400A00E1E6F2185F7DE63D00F012087010EF5
:101844001F6F150E1E6F2185EEDE5AD00F01208703
:101854001F6B8A0E1E6F2185E6DE52D0060E006EC7
:1018640058D0000E006E0001B41908E10050B319FD
:1018740005E1120EB21902E1B151C00ABAE0000E3C
:10188400006EB41908E10050B31905E1250EB21930
:1018940002E1B151800AB6E0000E006EB41908E10D
:1018A4000050B31905E14B0EB21902E1B151000A1F
:1018B400B2E0000E006EB41908E10050B31905E15E
:1018C400960EB21902E1B151000AAEE0000E006EAC
:1018D400B41908E10050B31905E1E10EB21902E1AF
:1018E400B151000AAAE0B451000A08E1B351010A57
:1018F40005E1B251C20A02E1B151000AA7E0AED734
:101904002E0E536E120E546EC80E556E000E566E89
:04191400006A120053
:1019180059D00001B2B102D0929201D092820F0147
:10192800259376D00001B2B102D0929801D0928866
:101938006FD00001B2B102D0969201D0968268D0E1
:101948000001B2B102D0949601D0948661D0000112
:10195800B2B102D0949801D094885AD00001B2B1A3
:1019680002D0949A01D0948A53D00001B2B102D027
:10197800949401D094844CD00001B2B102D09392D7
:1019880001D0938245D00001B2B102D0949E01D01B
:10199800948E3ED00001B2B102D0949C01D0948CB8
:1019A80037D00001B2B102D0949601D0948630D0DD
:1019B8000001B2B102D0949801D0948829D0010EC8
:1019C800006E28D00001B151000AA3E0B151010A0C
:1019D800A9E0B151020AADE0B151030AB1E0B15139
:1019E800040AB5E0B151050AB9E0B151060ABDE0F3
:1019F800B151070AC1E0B151080AC5E0B151090A5D
:101A0800C9E0B1510A0ACDE0B1510B0AD1E0D7D7EC
:061A1800000E006E12003A
:101A1E005DD00001B2B102D0929401D092840F0138
:101A2E0025957AD00001B2B102D0969601D0968655
:101A3E0073D00001B2B102D0969401D096846CD0CE
:101A4E000001B2B102D0949601D0948665D0000107
:101A5E00B2B102D0949801D094885ED00001B2B198
:101A6E0002D0949A01D0948A57D00001B2B102D01C
:101A7E00989001D0988050D00001B2B102D09394CA
:101A8E0001D0938449D00001B2B102D0989401D014
:101A9E0098840F01239540D00001B2B102D09892E4
:101AAE0001D098820F01239337D00001B2B102D03A
:101ABE00949601D0948630D00001B2B102D09498A1
:101ACE0001D0948829D0010E006E28D00001B151AA
:101ADE00000A9FE0B151010AA5E0B151020AA9E046
:101AEE00B151030AADE0B151040AB1E0B151050A9A
:101AFE00B5E0B151060AB9E0B151070ABDE0B151E6
:101B0E00080AC1E0B151090AC7E0B1510A0ACDE095
:0E1B1E00B1510B0AD1E0D7D7000E006E1200B5
:101B2C0059D00001B2B102D0929001D092800F0135
:101B3C00259176D00001B2B102D0949001D094805E
:101B4C006FD00001B2B102D0969001D0968068D0CF
:101B5C000001B2B102D0949601D0948661D00001FC
:101B6C00B2B102D0949801D094885AD00001B2B18D
:101B7C0002D0949A01D0948A53D00001B2B102D011
:101B8C00949201D094824CD00001B2B102D09390C7
:101B9C0001D0938045D00001B2B102D0949E01D007
:101BAC00948E3ED00001B2B102D0949C01D0948CA2
:101BBC0037D00001B2B102D0949601D0948630D0C7
:101BCC000001B2B102D0949801D0948829D0010EB2
:101BDC00006E28D00001B151000AA3E0B151010AF6
:101BEC00A9E0B151020AADE0B151030AB1E0B15123
:101BFC00040AB5E0B151050AB9E0B151060ABDE0DD
:101C0C00B151070AC1E0B151080AC5E0B151090A46
:101C1C00C9E0B1510A0ACDE0B1510B0AD1E0D7D7D6
:061C2C00000E006E120024
:101C320027D0CF0EAF6EAC943BEC09F070D0670E9C
:101C4200AF6EAC943BEC09F06AD0CF0EAF6EAC84B1
:101C52003BEC09F064D0670EAF6EAC843BEC09F04C
:101C62005ED0440EAF6EAC843BEC09F058D0220E2D
:101C7200AF6EAC843BEC09F052D0060E006E58D029
:101C8200000E006E0001B41908E10050B31905E11D
:101C9200120EB21902E1B151C00ACBE0000E006E81
:101CA200B41908E10050B31905E1250EB21902E199
:101CB200B151800AC4E0000E006EB41908E1005070
:101CC200B31905E14B0EB21902E1B151000ABDE0B0
:101CD200000E006EB41908E10050B31905E1960E2A
:101CE200B21902E1B151000AB6E0000E006EB41959
:101CF20008E10050B31905E1E10EB21902E1B15158
:101D0200000AAFE0B451000A08E1B351010A05E14B
:101D1200B251C20A02E1B151000AA9E0AED7200EC7
:101D2200536E120E546EC80E556E000E566E006A39
:021D320012009D
:101D340027D0CF0EAF6EAC943BEC09F070D0670E99
:101D4400AF6EAC943BEC09F06AD0CF0EAF6EAC84AE
:101D54003BEC09F064D0670EAF6EAC843BEC09F049
:101D64005ED0440EAF6EAC843BEC09F058D0220E2A
:101D7400AF6EAC843BEC09F052D0060E006E58D026
:101D8400000E006E0001B41908E10050B31905E11A
:101D9400120EB21902E1B151C00ACBE0000E006E7E
:101DA400B41908E10050B31905E1250EB21902E196
:101DB400B151800AC4E0000E006EB41908E100506D
:101DC400B31905E14B0EB21902E1B151000ABDE0AD
:101DD400000E006EB41908E10050B31905E1960E27
:101DE400B21902E1B151000AB6E0000E006EB41956
:101DF40008E10050B31905E1E10EB21902E1B15155
:101E0400000AAFE0B451000A08E1B351010A05E148
:101E1400B251C20A02E1B151000AA9E0AED7200EC4
:101E2400536E120E546EC80E556E000E566E006A36
:021E340012009A
:101E36000D6A086A0050D8B4000C04180A6E0ABE6F
:101E46000D1E0B6A04AE02D0041E042A00AE02D098
:101E5600001E002A005004100A6E0ABE1FD004504D
:101E6600085E003600340836045008260036060E92
:101E76000C6E00340836045000B0085E00A0082638
:101E860000360C2EF6D700A008260BB015D00DAEE6
:101E9600000C001E002A081E082A000C04AE09D0F9
:101EA60000BE04D00050086E006AF1D7006A002A0E
:101EB600000C001E0B2AD3D7082A0450085CD8A4AD
:0E1EC600E6D7086A002A00AEE2D7FF0C120031
:101ED40055C0E1FF56C0E2FFB1C0E9FFB2C0EAFF5E
:101EE400EECFE6FF53C000F054C001F066EC09F0F9
:041EF400006A12006E
:101EF800086A096A100E0C6E013408360936045057
:101F0800085E0550D8A0053C095ED8B007D004503B
:101F180008260550D8B0053C0926D8900036013669
:061F28000C2EEAD71200A6
:101F2E000050086E0150006E016A026A036A0B6A65
:101F3E000C6A960E036E0A6A00C001F008C000F02B
:0A1F4E00086A026AA8EC03F0120012
:101F58000001BD6B046A056A066A076AB5C000F02D
:101F6800B6C001F0B7C002F0B8C003F019EC07F032
:101F7800010ED8A4000E006E005209E0000E006E9B
:101F8800000E016E000E026E7F0E036EA8D0046A6A
:101F9800056A066A076AB1C000F0B2C001F0B3C0B2
:101FA80002F0B4C003F019EC07F0010ED8A4000E3B
:101FB800006E005205E0006A016A026A036A8FD067
:101FC800046A056A066A076AB1C000F0B2C001F087
:101FD800B3C002F0B4C003F041EC03F0010ED8B076
:101FE800000E006E00522DE0B5C000F0B6C001F042
:101FF800B7C002F0B8C003F099EC04F000C0B9F023
:1020080001C0BAF002C0BBF003C0BCF077EC04F02A
:10201800B5C004F0B6C005F0B7C006F0B8C007F008
:1020280019EC07F0000ED8A4010E006E005205E06E
:10203800006A016A026A036A52D0010EB915BD6FBF
:10204800B37FB1C0BEF0B2C0BFF0B3C0C0F0B4C07F
:10205800C1F077EC09F000C0B1F001C0B2F002C0E5
:10206800B3F003C0B4F0B5C004F0B6C005F0B7C013
:1020780006F0B8C007F0E1EC03F000C0B1F001C011
:10208800B2F002C0B3F003C0B4F000C0BEF001C0AB
:10209800BFF002C0C0F003C0C1F0FBEC09F000C003
:1020A800B1F001C0B2F002C0B3F003C0B4F0000157
:1020B800BD530DE0000EB119006E000EB219016E8D
:1020C800800EB319026E000EB419036E08D0B1C0A9
:1020D80000F0B2C001F0B3C002F0B4C003F01200C7
:1020E800B1C004F0B2C005F004C002F005C003F0AE
:1020F800044A052AB3C000F0B4C001F00001B34B94
:10210800B42B00C0E9FF01C0EAFF02C0E1FF03C031
:10211800E2FFEECFE6FF02C0E9FF03C0EAFFEE529E
:0E21280001E0E2D7B1C000F0B2C001F0120039
:10213600830EC216B1C000F0003600900036009043
:102146000050C21272EC09F0C282C2A201D0FDD7C1
:10215600C4CF01F0006A00C0B2F001C0B3F0C350B2
:102166000012000E011200C0B2F001C0B3F0000E62
:102176000014026E0150800B036E000E031802E17C
:10218600000E021803E00001B26BB36BB2C000F0A0
:06219600B3C001F01200CD
:10219C002DD096C0B1F097C0B2F098C0B3F099C0F2
:1021AC00B4F0C2DD31D096C0B1F097C0B2F098C097
:1021BC00B3F099C0B4F037DD27D096C0B1F097C01A
:1021CC00B2F098C0B3F099C0B4F0FAEC0BF01CD09C
:1021DC0096C0B1F097C0B2F098C0B3F099C0B4F00B
:1021EC0041EC0BF011D0010E006E0ED00001955198
:1021FC00000ACFE09551010AD6E09551020ADDE0C4
:0A220C009551100AE5E0EFD712002B
:1022160000019F6BA06B95C09BF096C09CF097C089
:102226009DF098C09EF09E51FF0A08E19D51FF0A5D
:1022360005E19C51FF0A02E19B51FF0A0CE199C09E
:10224600B1F09AC0B2F0290EB36F000EB46F49DF39
:10225600030E006EEDD1010E5F6E9DAF0ED0800EA7
:102266009D19006E00C09DF05F2A99C0E1FF9AC0DB
:10227600E2FF2D0EE66E994B9A2B000E006E9E190C
:1022860008E100509D1905E100509C1902E19B519F
:10229600000A0BE199C0B1F09AC0B2F0150EB36F07
:1022A600000EB46F1EDF006AC3D19E51FF0A08E11B
:1022B6009D51000A05E19C51000A02E19B51000A6A
:1022C6000CE199C0B1F09AC0B2F0170EB36F000ED0
:1022D600B46F07DF5FC000F0ABD1000E046E000ED6
:1022E600056E000E066E7F0E076E9BC000F09CC04A
:1022F60001F09DC002F09EC003F041EC03F0010E18
:10230600D8B0000E006E00521CE09BC000F09CC0CE
:1023160001F09DC002F09EC003F0000E046E000E98
:10232600056E200E066E820E076EE1EC03F000C00D
:102336009BF001C09CF002C09DF003C09EF0A00778
:10234600CCD7000E046E000E056E200E066E820EB1
:10235600076E9BC000F09CC001F09DC002F09EC0BD
:1023660003F041EC03F0000ED8B0010E006E0052EF
:102376001CE09BC000F09CC001F09DC002F09EC016
:1023860003F0CD0E046ECC0E056E4C0E066E7B0E63
:10239600076EE1EC03F000C09BF001C09CF002C0A8
:1023A6009DF003C09EF0A02BCCD7FF0E9B15086EA8
:1023B600FF0E9C15096E7F0E9D150A6E000E9E156A
:1023C6000B6E08C004F009C005F00AC006F00BC089
:1023D60007F004360490053606360736000E9B15C0
:1023E600006E000E9C15016E000E9D15026EFF0E0E
:1023F6009E15036E00C09BF001C09CF002C09DF0CC
:1024060003C09EF004509B11006E05509C11016E96
:1024160006509D11026E07509E11036E00C09BF080
:1024260001C09CF002C09DF003C09EF07F0E9E5D31
:10243600006E00C060F0010E9E6F00C004F09BC0ED
:1024460000F09CC001F09DC002F09EC003F0045055
:1024560007E000360090013602360336FF0FF8D744
:1024660000C09BF001C09CF002C09DF003C09EF02E
:1024760099C0E1FF9AC0E2FF9E51300FE66E994B7C
:102486009A2B800EA019006E800E010A005C08E3EC
:10249600800E060A006E800EA019005C01E30AD0C9
:1024A60099C0E1FF9AC0E2FF2E0EE66E994B9A2B79
:1024B600010E9F6F060E606F6051000A54E09E6B1E
:1024C6009BC000F09CC001F09DC002F09EC003F0CE
:1024D600003600900136023603360036009001368B
:1024E600023603369B5100269C5101229D51022241
:1024F6009E51032200C09BF001C09CF002C09DF0DB
:1025060003C09EF09BC000F09CC001F09DC002F08D
:102516009EC003F00036009001360236033600C036
:102526009BF001C09CF002C09DF003C09EF099C0D4
:10253600E1FF9AC0E2FF9E51300FE66E994B9A2B4F
:102546009F51000A0EE1A007A051000A0AE199C0B6
:10255600E1FF9AC0E2FF2E0EE66E994B9A2B010E12
:102566009F6F6007A9D7FF0E9925E96EFF0E9A2186
:10257600EA6EEE50300A05E1010E995F000E9A5B95
:10258600F2D7FF0E9925E96EFF0E9A21EA6EEE50FC
:102596002E0A04E1010E995F000E9A5BA051000A13
:1025A60041E099C0E1FF9AC0E2FF650EE66E994BE5
:1025B6009A2B800EA019006E800E000A005C0BE2BA
:1025C60099C0E1FF9AC0E2FF2D0EE66E994B9A2B59
:1025D600A0510008A06FA0C060F0800E090A006E2E
:1025E600800EA019005C0EE20A0E046E60C000F0B8
:1025F6001FDC99C0E1FF9AC0E2FF0050300FE66E83
:10260600994B9A2B0A0E046E60C000F011DC08C0CC
:1026160000F099C0E1FF9AC0E2FF0050300FE66E6D
:10262600994B9A2B99C0E1FF9AC0E2FFE66A006ACD
:02263600120090
:1026380018D096C0B1F097C0B2F096EC0DF01CD04F
:1026480096C0B1F097C0B2F08CEC0CF015D096C0E3
:10265800B1F097C0B2F00FEC0DF00ED0010E006E85
:102668000BD000019551000AE4E09551010AE8E019
:0A2678009551020AECE0F2D71200BF
:1026820000019851040A02E1000E9719D8A485D0DE
:102692000A0E9D6FD70E9E6FA30E9F6F7F0EA06FC7
:1026A200E10EA16F7A0EA26F2A0EA36F830EA46FA2
:1026B200A56BA66BA76BA86B95C000F096C001F046
:1026C20035DC330E046E330E056E530E066E760E37
:1026D200076EE1EC03F000C099F001C09AF002C06D
:1026E2009BF003C09CF000C004F001C005F002C0E2
:1026F20006F003C007F0000E006E000E016E000E21
:10270200026E800E036E41EC03F0010ED8B0000E93
:10271200006E005205E0006A016A026A036A4BD148
:1027220099C0B1F09AC0B2F09BC0B3F09CC0B4F0B3
:102732009DC0B5F09EC0B6F09FC0B7F0A0C0B8F083
:102742000ADC00C0A5F001C0A6F002C0A7F003C0D9
:10275200A8F0A1C004F0A2C005F0A3C006F0A4C076
:1027620007F0E1EC03F000C0A5F001C0A6F002C042
:10277200A7F003C0A8F0000E046E000E056E000E56
:10278200066E800E076E29EC08F000C0A5F001C0AD
:10279200A6F002C0A7F003C0A8F000019851100AE9
:1027A20002E1000E9719D8A4BFD00A0EA96FD70E66
:1027B200AA6F470EAB6F840EAC6F1F0EAD6F850E06
:1027C200AE6FAB0EAF6F7F0EB06FA56BA66BA76B34
:1027D200A86B95C000F096C001F097EC0FF0670E61
:1027E200046E400E056E530E066E740E076EE1EC1B
:1027F20003F000C099F001C09AF002C09BF003C040
:102802009CF000C004F001C005F002C006F003C055
:1028120007F0000E006E000E016E400E026E800E7A
:10282200036E41EC03F0010ED8B0000E006E0052B0
:1028320005E0006A016A026A036ABDD099C0B1F07C
:102842009AC0B2F09BC0B3F09CC0B4F0ADC0B5F07A
:10285200AEC0B6F0AFC0B7F0B0C0B8F0ACEC0FF09D
:1028620000C0A5F001C0A6F002C0A7F003C0A8F006
:10287200A9C004F0AAC005F0ABC006F0ACC007F0D6
:10288200E1EC03F000C0A5F001C0A6F002C0A7F081
:1028920003C0A8F000C004F001C005F002C006F0B9
:1028A20003C007F0000E006E000E016E200E026ED5
:1028B200830E036E41EC03F0010ED8B0000E006EE1
:1028C200005232E0A5C004F0A6C005F0A7C006F091
:1028D200A8C007F0000E006E000E016E5C0E026EC4
:1028E200850E036E41EC03F0000ED8B0010E006EAF
:1028F20000521AE0000E046E000E056E400E066EC7
:10290200800E076EA5C000F0A6C001F0A7C002F0BD
:10291200A8C003F074EC04F000C0A5F001C0A6F05A
:1029220002C0A7F003C0A8F0000E046E000E056EF0
:10293200200E066E830E076EA5C000F0A6C001F041
:10294200A7C002F0A8C003F041EC03F0010ED8B01A
:10295200000E006E005219E1A5C004F0A6C005F0F9
:10296200A7C006F0A8C007F0000E006E000E016EB0
:102972005C0E026E850E036E41EC03F0010ED8B0C0
:10298200000E006E005201E104D0A56BA66BA76B8E
:10299200A86B000E046E000E056E000E066E800E11
:1029A200076EA5C000F0A6C001F0A7C002F0A8C043
:0829B20003F029EC08F012000B
:1029BA000001B16B9BEC10F000C095F001C096F0DD
:1029CA00000E0001976F986F95C000F096C001F055
:0A29DA0097C002F098C003F012004D
:1029E40095C0B1F096C0B2F097C0B3F0CEEC0BF046
:0229F4001200CF
:1029F6005F6A050E5F5C0BE25F5000019725E16E92
:102A0600000E9821E26E200EE66E5F2AF2D70001D4
:102A16005F509725E16E000E9821E26EE66A5F062A
:102A26005F509725996F000E98219A6F0A0E046ED3
:102A3600000E056E95C000F096C001F07CEC0FF01C
:102A460008C000F009C001F0300E002699C0E1FF71
:102A56009AC0E2FF00C0E6FF0A0E046E000E056E85
:102A660095C000F096C001F07CEC0FF000C095F028
:102A760001C096F0000E011802E1000E001801E1F7
:082A860002D05F06CDD712005B
:102A8E0095C098F096C099F00D0E5F6E0A0E00017B
:102A9E00606F3AD098C0B1F099C0B2F06AEC0FF006
:102AAE003ED098C0E9FF99C0EAFFEE520AE098C006
:102ABE00B1F099C0B2F06AEC0FF00001984B992B6F
:102ACE00F0D72DD098C0E9FF99C0EAFFEE520AE088
:102ADE0098C0B1F099C0B2F06AEC0FF00001984BBB
:102AEE00992BF0D700015F0EB16F000EB26F6AEC3A
:102AFE000FF0600E0001B16F000EB26F6AEC0FF0B6
:102B0E000ED0060E006E0CD000019751000AC2E0E6
:102B1E009751010AC6E09751020AD4E0F2D7006A33
:022B2E00120093
:062B3000BCEC0BF01200EA
:102B36003DC0E1FF3EC0E2FF010EE66E3BC000F085
:0A2B46003CC001F066EC09F012003B
:102B50000001956B966B010E976F6EDD0001956B12
:102B6000010E966F976B68DD100E0001956F800E59
:102B7000966F250E976F000E986F996FCEEC10F040
:102B8000090E0B6E1E0E0C6EE40E0D6E0D2EFED792
:0C2B90000C2EFCD70B2EFAD70000120010
:102B9C000900F5CFE6FF0006FBE10106F9E11200A2
:102BAC0006DF00C061F001C062F000C095F001C00A
:102BBC0096F0630E976F000E986F17DF1B0E956FD4
:102BCC00000E966F010E976F5CDF630E0001956F20
:102BDC00000E966F020E976F54DF61C095F062C0C5
:102BEC0096F0000E0001976F100E986F44DD00C038
:102BFC003FF001C040F002C041F003C042F000C001
:102C0C0095F001C096F002C097F003C098F0630EE7
:102C1C000001996F000E9A6F0BEC11F02E0E956F50
:102C2C00000E966F010E976F2CDF630E0001956FEF
:102C3C00000E966F010E976F24DF250E0001956F25
:102C4C00000E966F020E976F1CDFA30E0B6E570EC5
:102C5C000C6E020E0D6E0D2EFED70C2EFCD70B2E0D
:062C6C00FAD7000012007F
:102C7200CA0E0001956F2C0E966F000E976FB1DE93
:102C8200090E0B6E1E0E0C6EE40E0D6E0D2EFED78F
:102C92000C2EFCD70B2EFAD700004CDF48DF090EB2
:102CA2000B6E1E0E0C6EE40E0D6E0D2EFED70C2E4C
:0A2CB200FCD70B2EFAD70000120029
:0E2CBC00CEEC16F047DFD7DF73DFFED7FFD771
:102D9C0010EE15F0260E006E010E016E520EF66E40
:0E2DAC002D0EF76E000EF86ECEEC15F0120034
:102CCA003E12C800F611C8000412C8001212C80049
:102CDA004C12C8006E0EC800E20FC8002810C800C7
:102CEA005A12C8006812C800600EC800E811C8006D
:102CFA00FFFFFFFFFFFFFFFFFFFFFFFFFFFFFFFFDA
:102D0A00FFFFFFFFFFFFFFFFFFFFFFFFFFFFFFFFC9
:102D1A00FFFFFFFFFFFFFFFFFFFFFFFFFFFFFFFFB9
:102D2A000000007F1872317EF0FD757C4758637A87
:102D3A0058951D7882C42E75A8782172EF93006F7A
:082D4A00A092276B46561568A4
:022D520030004F
:042D5400494E46009E
:0A2D58002076616C7565203A2000BA
:042D620020636D007D
:042D66004E614E006C
:012D6A003830
:0D2D6B002064697374616E6365203A200076
:102D7800FFE65B5DC4FF7F7E80EFFF7D90E1297DEC
:102D8800EC82F67C82AD2B7C0E3CC37B87D1137A18
:042D98004178D37734
:020000040030CA
:0E00000015137F7CF98B91FFFFC0FFE0FF40DE
:00000001FF
